:020000040800F2
:10000000D00B01209D010008C5230008A7010008AE
:10001000A9010008AB010008AD01000800000000C4
:10002000000000000000000000000000AF01000818
:10003000B101000800000000B301000825290008F4
:10004000B7010008B7010008B7010008B7010008B0
:10005000B701000899260008B7010008B701000899
:10006000B7010008B7010008B7010008B701000890
:10007000B7010008B7010008B701000881140008A3
:10008000B7010008B5140008B7010008B70100085F
:10009000210E0008B7010008B7010008B7010008E9
:1000A000B7010008B7010008B7010008B701000850
:1000B000C52A0008B7010008152B0008B701000881
:1000C000B7010008B7010008B7010008B701000830
:1000D000B7010008B7010008B7010008193200088D
:1000E000B7010008B7010008B7010008B701000810
:1000F000B7010008B70100089D2B0008B7010008F0
:10010000B7010008B7010008592B0008B701000823
:10011000B7010008B7010008B7010008B7010008DF
:10012000B7010008B7010008B7010008B7010008CF
:10013000B7010008B7010008B7010008B7010008BF
:10014000B7010008B7010008B7010008B7010008AF
:10015000B7010008B7010008E9140008B70100085A
:10016000B7010008B7010008B7010008B70100088F
:10017000B7010008B7010008B7010008B70100087F
:10018000B7010008B7010008DFF80CD000F04CFD03
:10019000004800472B490108D00B01200648804742
:1001A00006480047FEE7FEE7FEE7FEE7FEE7FEE75C
:1001B000FEE7FEE7FEE7FEE73929000889010008AF
:1001C000DFED300AB5EEC00A60EE200ABDEEE01A9F
:1001D00011EE100AF1EE10FA38BF401E00EE100AC0
:1001E0009FED291AB8EEC00A70EEC00A20EE810A0F
:1001F000BCEEC00A10EE100A00EE100A0028B8EE9D
:10020000C00A10EE810AB8BF002004DBB0F5807F81
:10021000C8BF4FF480701D4960EE000AB6EE001AA8
:10022000DFED1C2A9FED1A2A60EE011A60EE225AB9
:1002300020EE813A20EE022A21EEA01A01EB800086
:1002400073EE655A62EE202AB7EE006A33EE003A8A
:10025000D0EC043A76EE611A71EE600A35EEE20AED
:1002600033EE413A32EEC21A70EEA10A20EE230AB2
:1002700064EE831A04EE200A45EE011A31EE800A7C
:100280007047000083F9223E00008043308E020850
:10029000ABAA2A3EABAAAA3EDFED300AB5EEC00AF1
:1002A00060EE200ABDEEE01A11EE100AF1EE10FA2F
:1002B00038BF401E00EE100A9FED291AB8EEC00AA2
:1002C00070EEC00A20EE810ABCEEC00A10EE100AE1
:1002D00000EE100A0028B8EEC00A10EE810AB8BF7E
:1002E000002004DBB0F5807FC8BF4FF480701D494B
:1002F00060EE000AB6EE001ADFED1C2A9FED1A2A06
:1003000060EE011A60EE225A20EE813A20EE022AB7
:1003100021EEA01A01EB800073EE655A62EE202AEE
:10032000B7EE006A33EE003AD0EC043A76EE611A8A
:1003300071EE600A35EEE20A33EE413A32EEC21A4D
:1003400070EEA10A20EE230A64EE831A04EE200A5E
:1003500045EE011A31EE800A7047000083F9223E13
:100360000000804340920208ABAA2A3EABAAAA3EF4
:10037000D0ED060A90ED070A002930EE801A90EDC4
:10038000080A31EE001A80ED001AB0EE001A50EEA5
:10039000410AC0ED010A80ED020A08BF7047002142
:1003A000C1600161416170470021C160016141612B
:1003B00070472DE9F05F0546002092469B4688462F
:1003C0000646814640241BE02846414647462246D1
:1003D00000F023FB53465A46C01A914110D31146F0
:1003E0001846224600F00AFB2D1A67EB01084F461B
:1003F00022460120002100F001FB17EB00094E41CD
:10040000201EA4F10104DFDC484631462A4643465B
:10041000BDE8F09F2DE9F0410024061B254671F14F
:10042000000605DA01240027D0EB070067EB010185
:10043000161E73F1000605DA0027D2EB070201252C
:1004400067EB0303FFF7B5FF86460E4617469C464B
:10045000AC4204D00025D0EB050E65EB010624B1BB
:100460000020D2EB000760EB030C704631463A46A1
:100470006346BDE8F08140EA01039B0703D009E031
:1004800008C9121F08C0042AFAD203E011F8013B80
:1004900000F8013B521EF9D27047D2B201E000F8D9
:1004A000012B491EFBD270470022F6E710B5134618
:1004B0000A4604461946FFF7F0FF204610BD10B566
:1004C000002200E0521C835C8C5CA34201D1002B13
:1004D000F8D1D8B2E1B2401A10BD30B504460020C0
:1004E000034600E05B1C934203D2E05CCD5C401B02
:1004F000F8D030BD10B54843044614F01BFA00286C
:1005000005D00021002C02D0641E0155FAE710BD71
:100510002DE9FE4F804681EA0300C00F0C46009093
:1005200021F0004123F00045B8EB0200A94105D2BB
:100530004046214690461C460B46024623F00040AA
:10054000104347D0270DC7F30A00C3F30A510290A6
:10055000401A019040286BDAC3F3130040F4801B6B
:100560000098924620B10023D2EB030A63EB0B0BF9
:1005700001985946C0F14002504600F03FFA064645
:100580000D4650465946019A00F057FA10EB080004
:100590006141002487EA115284EAE7731A4340D08C
:1005A000009A62B3019A012A4FEA075215DC001B38
:1005B00061EB02014FF0004202EA0752CDE900422E
:1005C000001C41F5801132462B4600F08EFA03B034
:1005D000BDE8F08F40462146F9E7001B61EB0201C0
:1005E000001C41F5801300185B412018A2F500178C
:1005F00047EB030140EAD570B6196D4111E06D0873
:100600004FEA360645EAC0754FEA0752001B61EB18
:100610000201001C41F5801149084FEA3000001921
:10062000514132462B4603B0BDE8F04F00F04EBAC0
:100630000098012240000023D0EB020263EBE0733C
:10064000009821464FEAE074B8EB000061EB04012A
:10065000E9E783F000435BE781F0004158E72DE9CB
:10066000FE4F81EA030404F0004421F000410094AD
:100670004FF0000B23F0004350EA01045ED052EA31
:1006800003045BD0C3F30A54C1F30A552C44A4F20B
:10069000F3340194A0FB0254C1F3130141F480111F
:1006A000C3F3130343F4801301FB024400FB034E26
:1006B000840A970A44EA815447EA8357A4FB0768EF
:1006C00002958D0A05FB07854FEA932C04FB0C5419
:1006D0002705029D4FEA065847EA1637B5EB08058D
:1006E0006EEB070C870E920E47EA811742EA8312DF
:1006F000A7FB0201B6EB0B0164EB00042B0D43EAF0
:100700000C335E1844EB1C50DA465146E7FB0201FD
:10071000C5F313044FEA0B3343EA14534FEA043290
:10072000019C43EA0603A4F10C040294009CCDE969
:1007300000B400F0DAF903B0BDE8F08F0020014604
:10074000F9E72DE9F04D81EA030404F0004B21F0B4
:10075000004514464FF0000A23F0004150EA05021C
:1007600020D054EA01021DD0C5F30A570246C5F352
:100770001303C1F31300C1F30A5640F4801543F488
:100780008013A7EB0608101BD64608F2FD3873EB62
:10079000050002D308F1010801E092185B41B8F1AD
:1007A000000F03DA00200146BDE8F08D00204FF471
:1007B0008011064684460EE0171B73EB050705D330
:1007C000121B63EB050306434CEA010C49084FEA90
:1007D000300092185B4150EA0107EDD152EA030064
:1007E00012D082EA040083EA0501084305D0101BF9
:1007F000AB4106D20122002306E000224FF0004365
:1008000002E06FF0010253101AEB06004CEB0851A6
:1008100010EB0A0041EB0B01BDE8F04D00F056B9BA
:100820000EB5C10F80EAE0700844CA07002140F20B
:1008300033438DE80E000A460B4600F056F903B02C
:1008400000BD0EB540F2334102910021CDE9001107
:100850000A460B4600F049F903B000BD3EB5CA1781
:10086000CB0F002450405140C0186141DA0740F2DC
:1008700033430094CDE901232246234600F035F9A5
:1008800003B030BD70B5C1F30A5201F00045002439
:10089000C1F3130140F2FF3341F480119A4201DAAF
:1008A000002070BD40F233439A42A2F2334203DC8F
:1008B000524200F0B2F800E090402C43F1D04042A8
:1008C00070BDC1F30A5210B5C1F3130140F2FF33FA
:1008D00041F480119A4201DA002010BD40F2334306
:1008E0009A42A2F2334203DC524200F096F810BD65
:1008F000904010BD70B5C1F30A5201F000450024CC
:10090000C1F3130140F2FF3341F480119A4202DA3D
:100910000020014670BD40F233439A42A2F23342B6
:1009200003DC524200F079F801E000F067F82C4354
:10093000F0D00023D0EB030063EB010170BD00F0A9
:10094000004230F000400AD0C10D01F56071C0F3E3
:10095000160042EA0151C2084007114370470020C7
:100960000146704730B5041E71F1000404DB4FF0FE
:100970000044404264EB0101141E73F1000405DBE6
:100980001C464FF00043524263EB04038B4208BF06
:10099000824230BD30B5041E71F1000404DB4FF01B
:1009A0000044404264EB0101141E73F1000405DBB6
:1009B0001C464FF00043524263EB0403994208BFC8
:1009C000904230BD01F0004330B421F0004150EAC4
:1009D000010206D00A0DA2F56072C1F31301002ACC
:1009E00002DC30BC00207047440F44EAC104C1005F
:1009F000E01830BC00EBC25000F031B8202A04DB14
:100A0000203A00FA02F1002070479140C2F1200321
:100A100020FA03F3194390407047202A04DB203A60
:100A200021FA02F00021704721FA02F3D040C2F10E
:100A300020029140084319467047202A06DBCB1755
:100A4000203A41FA02F043EAE07306E041FA02F389
:100A5000D040C2F120029140084319467047002956
:100A6000A8BF7047401C490008BF20F00100704734
:100A700010B4B0FA80FC00FA0CF050EA010404BF94
:100A800010BC704749B1CCF1200421FA04F411FAEA
:100A90000CF118BF012121430843A3EB0C01CB1D2E
:100AA0004FEA00614FEA102042BF002010BC70479F
:100AB00000EBC35010440029A4BF10BC7047401C79
:100AC000490008BF20F0010010BC704710B5141E8B
:100AD00073F1000408DA401C41F1000192185B41F7
:100AE0001A4301D120F0010010BD2DE9F04D9246CE
:100AF0009B4611B1B1FA81F202E0B0FA80F22032E5
:100B00009046FFF77BFF04460F4640EA0A0041EAA1
:100B10000B0153465A46084313D0114653EA0100CD
:100B200019D0C8F140025046FFF777FF05460E4640
:100B3000504659464246FFF761FF084305D0012061
:100B400004E020463946BDE8F08D0020054346EA22
:100B5000E0762C4337430A986305E40AA0EB0800CB
:100B60000022FD0A44EA47540A3002D5002001461B
:100B7000E9E7010510196941DDE9084500196941F6
:100B8000BDE8F04DA2E72DE9F04D00231A461B1AEF
:100B90008A4103DB00200146BDE8F08DC1F30A5213
:100BA000C1F3130141F480154FF0000BD10702D1BE
:100BB00000186D41521E0027044640F2FF113846CE
:100BC00001EB620A3E468046024600204FF4801147
:100BD000FFF723FFC2197141BB1846EB0100B4EBCC
:100BE000030C75EB000C04D3E41A65EB0005174603
:100BF0000E46241908F101006D4180463428E3DDDA
:100C0000F91946EB0600091BA84103D24FF0FF3249
:100C1000134601E0002213461BEB070046EB0A5186
:100C2000BDE8F04DFFF752BF064C074D06E0E06807
:100C300040F0010394E8070098471034AC42F6D323
:100C4000FFF7A6FAE49802080499020870B58C1818
:100C500010F8015B15F0070301D110F8013B2A11D0
:100C600006D110F8012B03E010F8016B01F8016BBD
:100C70005B1EF9D12B0705D40023521E0DD401F8B9
:100C8000013BFAE710F8013BCB1A921C03E013F882
:100C9000015B01F8015B521EF9D5A142D8D30020B7
:100CA00070BD21B1826842F00102826003E0826877
:100CB00022F00102826070470021084A1168084A48
:100CC0001140D0E900231A4383681A43C3681A43CA
:100CD0001143044AC2F80413704700000423014082
:100CE000E030FCFF0020014010B50121080201F0B6
:100CF0000FFC00214FF4807001F00AFC10BD01468A
:100D0000C86C80B27047000030B502460020002356
:100D10005068104C20400D790C6844EA05242043AB
:100D2000506090680C4C2040D1E903542C438D68EE
:100D30002C434D7944EA450420439060D06A20F466
:100D400070000C7D641EE4B2234340EA0350D0627D
:100D500030BD0000FFFEFFFCFDF7FFC0F0B504460C
:100D60000D4600200021092D11DDE068A5F10A06DD
:100D700006EB4607072606FA07F18843A5F10A069F
:100D800006EB460603FA06F10843E0600CE0206932
:100D900005EB4507072606FA07F1884305EB4506EC
:100DA00003FA06F108432061072A0FDA606B561E2A
:100DB00006EB86071F2606FA07F18843561E06EB48
:100DC000860605FA06F10843606322E00D2A0FDA71
:100DD000206BD61F06EB86071F2606FA07F188430D
:100DE000D61F06EB860605FA06F10843206310E0DD
:100DF000E06AA2F10D0606EB86071F2606FA07F148
:100E00008843A2F10D0606EB860605FA06F10843B3
:100E1000E062F0BD816841F0804181607047000070
:100E200010B50221154800F0CDF8012824D114484E
:100E3000006800214268114800F0E7F9002414E03E
:100E40000F48006840680B30015D0D480068027D66
:100E50000B480068007D401C094B1B68187508484A
:100E6000006800698154601CC4B20548006840688D
:100E7000807AA042E4DC00BF10BD000000640040A6
:100E8000C000002010B504460B48844209D101215E
:100E9000480601F01DFB00214FF0007001F018FB27
:100EA00008E00121880601F013FB00214FF080606B
:100EB00001F00EFB10BD00000064004010B50021E1
:100EC000837A012202FA03F13D4A126842F00102DC
:100ED0003B4B1A603A4A1C3212688A43384B1C3327
:100EE0001A60027BCAB9364A0C3212688A43344B04
:100EF0000C331A604288C38842EA0343304A4032C6
:100F0000847A42F834300288838842EA03432C4AC8
:100F10004032847A02EBC4025360027B012A19D169
:100F2000274A0C3212680A43254B0C331A60428858
:100F3000038842EA0343224A4032847A42F834303A
:100F4000C288838842EA03431D4A4032847A02EB16
:100F5000C4025360C27A3AB9194A121D12688A4310
:100F6000174B1B1D1A6006E0154A121D12680A4332
:100F7000134B1B1D1A60028932B9114A14321268D0
:100F80008A430F4B14331A600289012A06D10C4A96
:100F9000143212680A430A4B14331A60427B012A46
:100FA00006D1074A1C3212680A43054B1C331A60EB
:100FB000034A126822F00102014B1A6010BD0000C2
:100FC0000066004070B504460D4600266069284062
:100FD000002871D0B5F5807F5CD010DC082D35D0AD
:100FE00006DC012D20D0022D24D0042D72D127E063
:100FF000102D31D0202D35D0402D6BD138E0B5F5F6
:10100000004F60D009DCB5F5007F49D0B5F5806FA1
:101010004CD0B5F5006F5DD14FE0B5F5803F2DD0D8
:10102000B5F5003F56D12FE0A0682D4900F01EFA1B
:10103000064651E0E068032100F018FA06464BE04E
:10104000E068082100F012FA064645E0E068102149
:1010500000F00CFA06463FE02069032100F006FA92
:10106000064639E02069082100F000FA064633E020
:101070002069102100F0FAF906462DE06068082189
:1010800000F0F4F9064627E06068102100F0EEF960
:10109000064621E0A069012100F0E8F906461BE0C0
:1010A000A069022100F0E2F9064615E0A0690421DA
:1010B00000F0DCF906460FE00FE0A069702100F0B7
:1010C000D5F9064608E06068042100F0CFF906462D
:1010D00002E0FFE7002600BF00E00026304670BDBA
:1010E000010101001AB143690B43436102E0436906
:1010F0008B434361704730B50246002000231468DB
:1011000024F002041460146844F00104146000E048
:101110005B1C546804F001041CB94FF6FF74A34231
:10112000F6D1546804F001040CB900206CE08C790D
:10113000012C04D1146844F08004146003E01468A6
:1011400024F080041460CC79012C04D1146844F09C
:101150004004146003E0146824F0400414600C7A26
:10116000012C04D1146844F02004146003E01468D6
:1011700024F0200414604C7A012C04D1146844F04B
:101180001004146003E0146824F0100414608C7AD6
:10119000012C04D1146844F00804146003E01468BE
:1011A00024F008041460CC7A012C04D1146844F0B3
:1011B0000404146003E0146824F0040414608C78C0
:1011C000A407CD7844EA05640D7944EA05444D79D5
:1011D00044EA05540D886D1E2C43D461146824F034
:1011E00001041460002300E05B1C546804F0010457
:1011F0001CB14FF6FF74A342F6D1546804F0010409
:101200000CB1002000E0012030BD10B500F5D8730E
:1012100003EB01131B6803F004031372137A53B931
:1012200000F5D87303EB01131B6840F2FF7404EA66
:101230005353136009E000F5D87303EB01131B68E7
:101240006FF0604404EAD303536000F5D87303EBF6
:1012500001131B6803F00203537200F5D87303EB0C
:1012600001135B6803F00F03937200F5D87303EB6F
:1012700001135B681B0AD37400F5D87303EB0113E9
:101280009B68D37200F5D87303EB01139B681C0AAB
:10129000147300F5D87303EB01139B681C0C547393
:1012A00000F5D87303EB01139B681B0E937300F5D5
:1012B000D87303EB0113DB68D37300F5D87303EB2A
:1012C0000113DB681C0A147400F5D87303EB0113D7
:1012D000DB681C0C547400F5D87303EB0113DB6856
:1012E0001B0E937421B9C36843F02003C36003E06D
:1012F000036943F02003036110BD000030B52DEDFC
:10130000068B83B00446002000900190029003F009
:1013100041F9006980690568A847B0EE40AAF0EE7F
:1013200060AA51EC1A0B81F0004141EC190B9FEDC2
:10133000490B53EC102BFFF792F941EC180BFFF718
:10134000A1FA009003F026F90069C0690568A84772
:10135000B0EE409AF0EE609A9FED3E0B53EC102BEE
:1013600051EC190BFFF77BF941EC180BFFF78AFAE8
:10137000019015F0B1FD80688569A847B0EE409AEC
:10138000F0EE609A9FED330B53EC102B51EC190BE0
:10139000FFF765F941EC180BFFF774FA02902F483C
:1013A000C07890B10098B0F5617F04DD0098A0F599
:1013B000617020601EE02A48006810F5AF6F19DAEE
:1013C000009800F5AF60206014E026490098096895
:1013D000884205DD234800680099401A206009E032
:1013E000214900980968884204DA1F48006800997A
:1013F000401A20601B4901984968884205DD194858
:1014000040680199401A60600AE015484068164932
:101410004968884204DA144840680199401A6060BB
:10142000104902988968884205DD0E488068029953
:10143000401AA06009E00C4902988968884204DAE1
:10144000094880680299401AA06003B0BDEC068B81
:1014500030BD000000000000000024400C0300200C
:101460005C03002080000020740000200246002061
:1014700002EA01030BB1012000E0002070470000E8
:1014800038B5042000909DF8000000F0ADFB044644
:10149000E16A206A00F016F940B1E16A206A00F0C2
:1014A0003BF801200249096881F81B0238BD0000A1
:1014B0001C02002038B5022000909DF8000000F0CA
:1014C00093FB0446E16A206A00F0FCF840B1E16A4F
:1014D000206A00F021F801200249096881F81B0206
:1014E00038BD00007401002070B50125284600F0C9
:1014F0007BFB0446E16A206A00F0E4F840B1E16A4F
:10150000206A00F009F801200249096881F81B02ED
:1015100070BD0000CC0000200246094B9A4201D267
:10152000084801E00648103801F000531BB1064B93
:101530000B40C36002E0044B0B4083607047000027
:1015400010640240006002407D0F7D0F21B10268EF
:1015500042F00102026003E0026822F00102026030
:1015600070470000016821F0010101600021016065
:1015700041608160C1600161212141614A49884225
:1015800004D13D21484A103A91608CE04649183117
:10159000884205D14FF47461434A103A916082E069
:1015A00041493031884205D14FF474113E4A103A16
:1015B000916078E03C494831884205D14FF0746130
:1015C000394A103A91606EE037496031884204D15F
:1015D0003649354A103AD16065E03349783188425E
:1015E00004D13349304A103AD1605CE02E49903141
:1015F000884204D12F492C4A103AD16053E02A493D
:10160000A831884205D14FF03D51274A103AD160A8
:1016100049E02949884204D13D21274A083A11600E
:1016200041E025491831884205D14FF47461224ABE
:10163000083A116037E020493031884205D14FF433
:1016400074111D4A083A11602DE01B494831884247
:1016500005D14FF07461184A083A116023E0164929
:101660006031884204D11149134A121F11601AE0F7
:1016700011497831884204D10D490F4A121F116077
:1016800011E00D499031884204D10A490A4A121FDB
:10169000116008E00849A831884204D14FF03D515B
:1016A000054A121F11607047106002403D00002083
:1016B000400F002000003D201064024001464868B1
:1016C00080B2704770B50246002000240025124EFB
:1016D000B24201D2114B01E00F4B103B104E0E40B5
:1016E00036B11E2606EAD124166806EA040502E091
:1016F000566906F0800501F000560EB15C6800E006
:101700001C68084E344004EA010616B10DB10120F0
:1017100000E0002070BD0000106402400060024044
:101720003C0F3C0F7D0F7D0F10B501F080034BB1D6
:1017300022B1436943F08003436103E0436923F02E
:101740008003436180290BD02AB1036801F01E0495
:101750002343036004E0036801F01E04A343036015
:1017600010BD000010B500220268134B1A40CC686F
:101770000B6823434C6923438C692343CC6923437F
:101780000C6A23434C6A23438C6A23434C6B2343E8
:101790008C6B23431A430260426922F00702D1E9AD
:1017A0000B3423431A4342610B6943604B688360E7
:1017B0008B68C36010BD00003F801CF001490860C9
:1017C000704700000C3C024070B504460A460026F3
:1017D000092502B909E0012A01D1160205E0022A11
:1017E00001D1160201E04FF4407600F09FF8054663
:1017F000092D28D11548006820F44070134908606D
:1018000008460068304308600846006820F0F80089
:1018100008600846006844F0020108430B4908606C
:101820000846006840F48030086000F07FF8054604
:101830000648006820F00200044908600846006875
:1018400020F0F8000860284670BD0000103C0240FF
:1018500009201349096801F48031B1F5803F01D1B5
:1018600001201CE00E49096801F0100109B10620B1
:1018700015E00B49096801F4807109B102200EE0FE
:101880000749096801F0EF0109B1072007E00449A1
:10189000096801F0020109B1082000E00920704741
:1018A0000C3C02400348006840F0004001490860D9
:1018B00070470000103C024030B502460C46092536
:1018C00000F034F80546092D19D10E48006820F4BF
:1018D00040700C4908600846006840F400700860D9
:1018E0000846006840F001000860146000F01EF82F
:1018F00005460448006820F00100024908602846B7
:1019000030BD0000103C02400548006800F0004077
:1019100028B1044802490C39086003480860704740
:10192000103C024023016745AB89EFCD08B5092083
:101930000090FFF78DFF009002E0FFF789FF009015
:101940009DF800000128F8D09DF8000008BD0000B7
:1019500010B504464148844208D10121084600F0F0
:1019600097FD0021012000F093FD76E03C48844281
:1019700008D10121022000F08BFD0021022000F09F
:1019800087FD6AE03748844208D10121042000F035
:101990007FFD0021042000F07BFD5EE032488442A0
:1019A00008D10121082000F073FD0021082000F07B
:1019B0006FFD52E02D48844208D10121102000F033
:1019C00067FD0021102000F063FD46E028488442B6
:1019D00008D10121202000F05BFD0021202000F033
:1019E00057FD3AE02348844208D10121402000F00D
:1019F0004FFD0021402000F04BFD2EE01E488442A8
:101A000008D10121802000F043FD0021802000F05A
:101A10003FFD22E01948844208D10121801500F0E1
:101A200037FD0021A01500F033FD16E01448844274
:101A300008D10121401500F02BFD0021601500F0B8
:101A400027FD0AE00F48844207D10121001500F06C
:101A50001FFD0021201500F01BFD10BD00000240FD
:101A60000004024000080240000C02400010024046
:101A70000014024000180240001C024000200240F6
:101A80000024024000280240F0B50A46002100234D
:101A9000002400BF3DE0012505FA01F3156805EAC1
:101AA00003049C4234D105684F000326BE40B54371
:101AB000056015794E00B540066835430560157917
:101AC000012D02D01579022D16D185684F0003260D
:101AD000BE40B543856055794E00B54086683543B4
:101AE0008560456801268E40B54345604568967916
:101AF0008E40B6B235434560C5684F000326BE40F0
:101B0000B543C560D5794E00B540C6683543C5605C
:101B1000491C1029BFD3F0BDF0B5002300244D07A8
:101B2000ED0E02FA05F3CE1000F1200555F826500F
:101B30004E07F70E0F26BE40B543CF1000F120062A
:101B400046F82750CE1000F1200555F8265045EAFA
:101B50000304CE1000F1200545F82640F0BD418376
:101B60007047018370470000014601EBC100024A43
:101B700002EB80007047000038420208014601EB8A
:101B80004100024A02EBC000704700000041020819
:101B9000014601EB8100014A1044704714390208E4
:101BA00000487047A44202080146C1EBC100024A46
:101BB00002EB800070470000903D0208014601EBF7
:101BC0004100024A02EBC000704700008840020852
:101BD000014601EB410000EBC100024A02EB80002C
:101BE00070470000F43D02080146C1EB0110024AB3
:101BF00002EB800070470000EC3B02083FB595B057
:101C000004461C9D00200C900D900E9009900A90A7
:101C10000B90069007900890039004900590009018
:101C20000190029014B9401E19B030BDCA4A07CACB
:101C300012AB07C3C94A07CA0FAB07C3C848C0786D
:101C4000012804D14FF461700F90C6481290169984
:101C50001298401A0C9017991398401A0D901899E1
:101C60001498401A0E9016990F98401A09901799D7
:101C70001098401A0A9018991198401A0B90B6497A
:101C80000C980968884201DD0C9801E0B2480068B0
:101C90000690B1490D984968884201DD0D9801E030
:101CA000AD4840680790AC490E988968884201DDCC
:101CB0000E9801E0A84880680890A849099809682A
:101CC000884201DA099801E0A44800680390A3491A
:101CD0000A984968884201DA0A9801E09F484068FA
:101CE00004909E490B988968884201DA0B9801E0BC
:101CF0009A4880680590D4ED000A9DED160AB8EE6A
:101D0000C00A30EEC00A8DED000AD4ED010A9DED47
:101D1000170AB8EEC00A30EEC00A8DED010AD4ED04
:101D2000020A9DED180AB8EEC00A30EEC00A8DED29
:101D3000020ADDED000A9DED030AB8EEC00AF4EEDA
:101D4000C00AF1EE10FA02D29DED000A03E09DED0B
:101D5000030AB8EEC00A8DED000ADDED000A9DED24
:101D6000060AB8EEC00AF4EEC00AF1EE10FA02DD7F
:101D70009DED000A03E09DED060AB8EEC00A8DED68
:101D8000000ADDED010A9DED040AB8EEC00AF4EE8A
:101D9000C00AF1EE10FA02D29DED010A03E09DEDBA
:101DA000040AB8EEC00A8DED010ADDED010A9DEDD1
:101DB000070AB8EEC00AF4EEC00AF1EE10FA02DD2E
:101DC0009DED010A03E09DED070AB8EEC00A8DED16
:101DD000010ADDED020A9DED050AB8EEC00AF4EE37
:101DE000C00AF1EE10FA02D29DED020A03E09DED69
:101DF000050AB8EEC00A8DED020ADDED020A9DED7E
:101E0000080AB8EEC00AF4EEC00AF1EE10FA02DDDC
:101E10009DED020A03E09DED080AB8EEC00A8DEDC3
:101E2000020ADDED000A9DED160AB8EEC00A30EE9A
:101E3000800A84ED000ADDED010A9DED170AB8EE77
:101E4000C00A30EE800A84ED010ADDED020A9DED44
:101E5000180AB8EEC00A30EE800A84ED020A002D9E
:101E600078D0414800683D49096888420BDDDDEDC6
:101E7000000A3A4890ED000AB8EEC00AF4EEC00A33
:101E8000F1EE10FA11DC38480068334909688842DD
:101E90000DDADDED000A304890ED000AB8EEC00A18
:101EA000F4EEC00AF1EE10FA01D2012000E00020A9
:101EB00028702D4840682949496888420BDDDDEDCE
:101EC000010A264890ED010AB8EEC00AF4EEC00AF5
:101ED000F1EE10FA11DC244840681F494968884235
:101EE0000DDADDED010A1C4890ED010AB8EEC00ADA
:101EF000F4EEC00AF1EE10FA01D2012000E0002059
:101F00006870194880681549896888420BDDDDEDE5
:101F1000020A124890ED020AB8EEC00AF4EEC00AB6
:101F2000F1EE10FA11DC104880680B49896888428C
:101F30000EDADDED020A084890ED020AB8EEC00A9A
:101F4000F4EEC00AF1EE10FA02D2012001E001E045
:101F50000020A870012067E67400002080000020A7
:101F60000C03002088FAFFFF5C0300200FB410B5BB
:101F70002DED048B9DED0C8A0D9C9FED490AF0EE32
:101F8000408A9FED470AB0EE409A9FED450AF0EE79
:101F9000409A34B94FF0FF30BDEC048B10BC5DF8B3
:101FA00014FB06990998401A00EE100AB8EEC00A10
:101FB000F0EE080A20EE200AF8EE480A80EE201A19
:101FC0009FED380A21EE000AF0EE408A07990A9840
:101FD000401A00EE100AB8EEC00AF0EE080A20EE31
:101FE000200AB8EE481AC0EE010A9FED2E0A20EE34
:101FF000800AB0EE409A08990B98401A00EE100A39
:10200000B8EEC00AB8EE481AC0EE010A9FED250AE4
:1020100020EE800AF0EE409AF5EEC08AF1EE10FA5A
:1020200006DBB7EE000A38EE800ABDEEC00A05E016
:10203000B7EE000A38EEC00ABDEEC00A84ED000A11
:10204000B5EEC09AF1EE10FA06DBB7EE000A39EEF3
:10205000000ABDEEC00A05E0B7EE000A39EE400AFC
:10206000BDEEC00A84ED010AF5EEC09AF1EE10FA59
:1020700006DBB7EE000A39EE800ABDEEC00A05E0C5
:10208000B7EE000A39EEC00ABDEEC00A84ED020ABE
:1020900020460EA90EC900F05DF901207CE7000082
:1020A000000000000000C8420FB430B591B00446F3
:1020B00000200E900F9010900B900C900D900890B7
:1020C00009900A9024B1012C7ED0022C7BD1E9E04A
:1020D00097480078012804D1801E11B030BC5DF80B
:1020E00014FB9DF8540018B1924800680E9004E06B
:1020F000904800681A9908440E909DF8550018B150
:102100008C4840680F9004E08A4840681B99084456
:102110000F909DF8560018B186488068109004E032
:10212000844880681C99084410909DED0E0AB8EE12
:10213000C00A8DED0B0A9DED0F0AB8EEC00A8DEDB9
:102140000C0A9DED100AB8EEC00A8DED0D0A0020B4
:10215000009079480EC80BA8FFF750FD9DED0B0AC3
:10216000BDEEC00A8DED0E0A9DED0C0ABDEEC00A53
:102170008DED0F0A9DED0D0ABDEEC00A8DED100A22
:102180006E480EA90EC90EC00120694908700220D0
:102190006B4908706B4AD2E900109268CDE90502DC
:1021A00004916949BDF85800CDE902016349D1E9BC
:1021B0000101CDE90001614803685E4807C8FFF7E7
:1021C000D5FEB1E000E0ACE059480078012801D12B
:1021D000801E82E79DF8540018B1564800680E90A2
:1021E00001E01A980E909DF8550018B151484068CA
:1021F0000F9001E01B980F909DF8560018B14D48C4
:102200008068109001E01C9810909DED0E0AB8EEC9
:10221000C00A8DED0B0A9DED0F0AB8EEC00A8DEDD8
:102220000C0A9DED100AB8EEC00A8DED0D0A0020D3
:10223000009041480EC80BA8FFF7E0FC9DED0B0A8B
:10224000BDEEC00A8DED0E0A9DED0C0ABDEEC00A72
:102250008DED0F0A9DED0D0ABDEEC00A8DED100A41
:1022600036480EA90EC90EC001203149087002205F
:1022700033490870334AD2E900109268CDE905026B
:1022800004913149BDF85800CDE902012B49D1E94B
:102290000101CDE9000129480368264807C8FFF776
:1022A00065FE41E022480078012805D124480078E5
:1022B000022801D1C01E10E71AA807C808AB07C33F
:1022C00020480EC808A800F045F81F4808A90EC904
:1022D0000EC01A9818B91B9808B91C9828B101208B
:1022E00013490870164908701AE01A9830B914F0AA
:1022F000F3FD00689FED150B056AA8471B9830B9E0
:1023000014F0EAFD40689FED110B056AA8471C9880
:1023100030B914F0E1FD80689FED0C0B056AA84709
:1023200002E04FF0FF30D8E600BF0120D5E6000004
:102330007000002068030020A80300208403002010
:1023400071000020083902089003002000000000FE
:10235000000000000FB50168019A914201DD01996A
:1023600000E0016801604168029A914201DD029932
:1023700000E0416841608168039A914201DD039960
:1023800000E0816881600168019A5242914202DA5C
:102390000199494200E0016801604168029A524295
:1023A000914202DA0299494200E041684160816845
:1023B000039A5242914202DA0399494200E081684D
:1023C00081600FBD10B5802000F052F948B10120A6
:1023D00000F05AF90121182000F07CF9802000F06B
:1023E000A7F810BD70B5002100230F22C4781CB3DC
:1023F000174C246804F4E064C4F5E064C4F30721D6
:10240000C1F10404E3B20A4144789C40E1B284780B
:10241000144021430C07210E0E4C057861550478B9
:1024200004F01F050124AC4005786D11AD0005F1E5
:10243000E025C5F8004109E0047804F01F050124F7
:10244000AC40054D0678761145F8264070BD000079
:102450000CED00E000E400E080E100E0024901430F
:10246000024A1160704700000000FA050CED00E020
:1024700029B1064A12680243044B1A6004E0034A79
:1024800012688243014B1A607047000030380240E6
:1024900029B1064A12680243044B1A6004E0034A59
:1024A00012688243014B1A607047000010380240E6
:1024B00029B1064A12680243044B1A6004E0034A39
:1024C00012688243014B1A60704700004038024096
:1024D00029B1064A12680243044B1A6004E0034A19
:1024E00012688243014B1A60704700002038024096
:1024F00029B1064A12680243044B1A6004E0034AF9
:1025000012688243014B1A60704700004438024051
:1025100029B1064A12680243044B1A6004E0034AD8
:1025200012688243014B1A60704700002438024051
:1025300001490870704700000E3802400149C86424
:102540007047000000004742F0B50021002200243F
:10255000022500260223324F3F6807F00C0121B10B
:10256000042905D0082937D105E02E4F076036E051
:102570002D4F076033E02A4F3F1F3F68C7F3805657
:10258000274F3F1F3F6807F03F036EB1264FB7FB51
:10259000F3F7DFF88CC0ACF1040CDCF800C0CCF32E
:1025A000881C07FB0CF40CE01E4FB7FBF3F7DFF8B9
:1025B00070C0ACF1040CDCF800C0CCF3881C07FB45
:1025C0000CF4174F3F1F3F68C7F301477F1C7D0086
:1025D000B4FBF5F7076002E0124F076000BF00BFD1
:1025E0000F4F3F6807F0F0010909104F7A5C076848
:1025F000D74047600A4F3F6807F4E051890A0B4F04
:102600007A5C4768D7408760054F3F6807F46041B0
:10261000490B064F7A5C4768D740C760F0BD0000A1
:10262000083802400024F40000127A00F002002072
:1026300010B501460022002300204A11012A02D1D0
:102640000A4C236808E0022A03D1084C703423683E
:1026500002E0064C7434236801F01F020124944008
:102660001C400CB1012000E0002010BD00380240E9
:1026700001460020034A12680A400AB1012000E026
:10268000002070470C3802400021024A11701146A8
:10269000087070470238024010B50820FFF7E8FFC5
:1026A00048B10820FFF744FF3120FFF7C1FF10B108
:1026B000012000F01FF81020FFF7DAFF48B11020CA
:1026C000FFF736FF3920FFF7B3FF10B1022000F00B
:1026D00017F810BD29B1064A12780243044B1A704C
:1026E00004E0034A12788243014B1A7070470000DD
:1026F0000D3802400149086670470000000047425B
:1027000001460020034A106820F0030008431060CF
:10271000704700000838024021B1028842F04002B0
:10272000028004E002884FF6BF731A4002807047AF
:1027300010B504462448844208D101218014FFF7D3
:10274000E7FE0021A014FFF7E3FE3CE01F488442AF
:1027500008D101210014FFF7BBFE00212014FFF770
:10276000B7FE30E01A48844208D10121C013FFF7B8
:10277000AFFE0021E013FFF7ABFE24E015488442D2
:1027800008D101214014FFF7C3FE00216014FFF7B8
:10279000BFFE18E01048844209D101210805FFF767
:1027A000B7FE00214FF48010FFF7B2FE0BE00B489C
:1027B000844208D101214805FFF7AAFE00214FF409
:1027C0000010FFF7A5FE10BD0030014000380040AA
:1027D000003C0040003401400050014000540140E2
:1027E0000246002013890B400BB1012000E00020BD
:1027F00070470146888970478181704710B5002273
:10280000028802F441520B884C8823438C8823436E
:10281000CC8823430C8923434C8923438C8923434D
:10282000CC8923431A430280838B4FF2FF742340E9
:1028300083830B8A038210BD0CB5002001900090A9
:102840003448006840F480303249086000BF3148A5
:10285000006800F4003000900198401C019000983E
:1028600018B90198B0F5A04FF1D12A48006800F4DA
:10287000003010B10120009001E00020009000988D
:10288000012846D123484030006840F0805021495B
:10289000403108602048006840F440401E4908600C
:1028A0001C48083000681B49083108600846006869
:1028B00040F4004008600846006840F4A0500860FA
:1028C0001648091F0860081F006840F08070091F43
:1028D000086000BF0F48006800F000700028F9D0C1
:1028E00040F205700E4908600A480830006820F080
:1028F00003000849083108600846006840F00200FB
:10290000086000BF03480830006800F00C00082889
:10291000F8D10CBD00380240007000400854400758
:10292000003C0240034800680078401C01490968E7
:10293000087070475402002010B51548006840F434
:102940007000134908601348006840F00100114905
:10295000086000200F49083108600E4800680E49E1
:1029600008400C4908600D48091D0860081F0068F0
:1029700020F48020091F0860002006490C310860FF
:10298000FFF75AFF4FF0006001498039086010BD21
:1029900088ED00E000380240FFFFF6FE1030002412
:1029A000F0B50C46154600210022068C4FF6FE7746
:1029B0003E400684018B028C4FF60C7631407E1C23
:1029C00006EA03162E4331434FF6F576324044F0C3
:1029D0000106324301830284F0BDF0B50C46154672
:1029E000002100220026078C4FF6EF7C07EA0C0737
:1029F0000784018B028C4FF6FF7707EA041640F636
:102A0000FF4739404FF6FF7707EA033739434FF660
:102A1000FF7707EA052739434FF65F773A4046F0DC
:102A200010073A4301830284F0BDF0B50C46154609
:102A3000002100220026078C4FF6FF6C07EA0C07E6
:102A40000784818B028C4FF6FF7707EA04264FF646
:102A50000C7739404FF6FF7707EA03172F433943C6
:102A60004FF2FF573A4046F480773A43818302841D
:102A7000F0BDF0B50C461546002100220026078C5B
:102A80004EF6FF7C07EA0C070784818B028C4FF619
:102A9000FF7707EA043640F6FF4739404FF6FF77E5
:102AA00007EA052739434FF6FF7707EA033739432B
:102AB00045F6FF773A4046F480573A4381830284D3
:102AC000F0BD00002DE9FC410220019000909DF82E
:102AD0000400FFF77DF804469DF80000FFF76EF84C
:102AE00005462989E06800F079F970B10848066860
:102AF000E0686969884707463069416B384688470E
:102B00002989E06800F078F800BFBDE8FC8100008A
:102B1000B00000207CB504200190012000909DF8B9
:102B20000400FFF755F804469DF80000FFF746F84B
:102B300005462989E06800F051F950B1054806685A
:102B40000120B168896808712989E06800F054F8AB
:102B500000BF7CBD380200207CB50520019001201B
:102B600000909DF80400FFF733F804469DF800003C
:102B7000FFF724F805462989E06800F02FF950B1E5
:102B8000054806680120B168096808712989E0686C
:102B900000F032F800BF7CBD380200207CB5082070
:102BA0000190012000909DF80400FFF711F8044601
:102BB0009DF80000FFF702F805462989E06800F05B
:102BC0000DF950B1054806680120B16849680871DF
:102BD0002989E06800F010F800BF7CBD38020020B1
:102BE00021B1028842F08002028004E002884FF6A0
:102BF0007F731A4002807047CA430282704721B136
:102C0000028842F00102028004E002884FF6FE735F
:102C10001A400280704731B1B0F8442042F40042BB
:102C2000A0F8442005E0B0F84420C2F30E02A0F85A
:102C30004420704710B504465548844208D101210C
:102C40000846FFF765FC00210120FFF761FC9DE0CD
:102C5000B4F1804F08D101210846FFF739FC00216B
:102C60000120FFF735FC91E04A48844208D1012158
:102C70000220FFF72DFC00210220FFF729FC85E050
:102C80004548844208D101210420FFF721FC00219E
:102C90000420FFF71DFC79E04048844208D101215F
:102CA0000820FFF715FC00210820FFF711FC6DE05C
:102CB0003B48844208D101211020FFF709FC002184
:102CC0001020FFF705FC61E03648844208D101215D
:102CD0002020FFF7FDFB00212020FFF7F9FB55E046
:102CE0003148844208D101210220FFF711FC002164
:102CF0000220FFF70DFC49E02C48844209D1012154
:102D00000804FFF705FC00214FF48030FFF700FCBA
:102D10003CE02748844209D101214804FFF7F8FB31
:102D200000214FF40030FFF7F3FB2FE021488442ED
:102D300009D101218804FFF7EBFB00214FF480202B
:102D4000FFF7E6FB22E01C48844208D10121402025
:102D5000FFF7BEFB00214020FFF7BAFB16E0174843
:102D6000844208D101218020FFF7B2FB002180209E
:102D7000FFF7AEFB0AE01248844207D1012180151B
:102D8000FFF7A6FB0021A015FFF7A2FB10BD000076
:102D9000000001400004004000080040000C00401A
:102DA00000100040001400400004014000400140B9
:102DB000004401400048014000180040001C004051
:102DC000002000400146486B70470146886B704701
:102DD0000146C86B70470146086C704730B5024623
:102DE000002000230024158A05EA0103958905EADD
:102DF000010413B10CB1012000E0002030BD70B51A
:102E000005460C46208850B92389A2886188284647
:102E1000FFF7C6FDE188284600F08FF925E02088FD
:102E200004280AD12389A28861882846FFF7D5FDA6
:102E3000E188284600F08AF917E0208808280AD19E
:102E40002389A28861882846FFF7EFFDE18828469C
:102E500000F089F909E02389A28861882846FFF7F4
:102E600008FEE188284600F087F970BD1AB1838911
:102E70000B43838102E083898B4383817047000089
:102E800070B5002400220023058C4FF6FE763540F5
:102E90000584028C8388048B4FF68F752C40B51EF9
:102EA0002C400D882C43751E2A408D892A434D885D
:102EB0002A43104DA84202D00F4DA84213D14FF61D
:102EC000F7752A40CD892A434FF6FB752A408D8835
:102ED0002A434FF6FF652B404FF6FF552B400D8AD6
:102EE0002B434D8A2B43838004838D684563028482
:102EF00070BD000000000140000401400A460021AE
:102F0000018B4FF6F773194011430183704700009E
:102F100070B5002400220023058C4FF6EF76354073
:102F20000584028C8388048B48F6FF752C404FF68D
:102F3000FF452C400D884FF6FF7606EA05252C4309
:102F40004FF6DF752A408D8906EA05152A434D881C
:102F500006EA05152A43154DA84202D0144DA84291
:102F60001DD14FF67F752A40CD894FF6FF7606EAD0
:102F700005152A434FF6BF752A408D8806EA0515C8
:102F80002A434FF6FF352B404FF2FF752B400D8A39
:102F900006EA85052B434D8A06EA85052B43838087
:102FA00004838D688563028470BD000000000140C9
:102FB000000401400A460021018B4FF2FF731940C3
:102FC0004FF6FF7303EA02231943018370470000A1
:102FD00070B5002400220023058C4FF6FF663540B3
:102FE0000584028C8388848B4FF68F752C404FF6B6
:102FF000FC752C400D882C434FF6FF552A408D89D7
:103000004FF6FF7606EA05252A434D8806EA052590
:103010002A43154DA84202D0144DA8421DD14FF2AB
:10302000FF752A40CD894FF6FF7606EA05252A432B
:103030004FF6FF352A408D8806EA05252A434EF6CD
:10304000FF752B404DF6FF752B400D8A06EA0515DE
:103050002B434D8A06EA05152B43838084838D68B4
:10306000C563028470BD00000000014000040140FF
:103070000A460021818B4FF6F77319401143818373
:103080007047000070B5002200230024058C4EF626
:10309000FF7635400584038C8488828B48F6FF7563
:1030A0002A404FF6FF452A400D884FF6FF7606EA84
:1030B00005252A434DF6FF752B408D8906EA053517
:1030C0002B434D8806EA05352B430A4DA84202D012
:1030D000094DA84208D14BF6FF752C400D8A4FF6DA
:1030E000FF7606EA85152C43848082838D6805640B
:1030F000038470BD00000140000401400A46002125
:10310000818B4FF2FF7319404FF6FF7303EA0223DE
:103110001943818370470A46002101894FF68F7356
:10312000194011430181704702894FF6F8731A4024
:10313000028102890A4302817047028B4FF6F373C2
:103140001A400283028B0A4302837047028B4FF2BC
:10315000FF331A400283028B4FF6FF7303EA012309
:103160001A4302837047828B4FF6F3731A408283AF
:10317000828B0A4382837047828B4FF2FF331A405F
:103180008283828B4FF6FF7303EA01231A43828303
:103190007047000000220288184B98420ED0184B4E
:1031A00098420BD0B0F1804F08D0164B984205D012
:1031B000154B984202D0154B984204D14FF68F73AD
:1031C0001A404B881A43124B984207D0114B984231
:1031D00004D04FF6FF431A400B891A4302804B6814
:1031E000C3620B880385054B984202D0044B98427A
:1031F00001D18B7A0386012383827047000001404E
:10320000000401400004004000080040000C0040A1
:1032100000100040001400407CB5032001909DF890
:103220000400FEF7E1FCC56840F22551284600F095
:10323000B1F8012815D1284600F066F9C0B2009017
:1032400008480468207A012805D0207A0D2802D089
:10325000207A0E2804D1E068416B9DF80000884771
:1032600000BF7CBDB000002001F40072B2F5007F09
:1032700000D100BFCA430280704721B1828942F465
:103280000052828104E082894DF6FF731A408281E8
:1032900070471AB1838A0B43838202E0838A8B438F
:1032A0008382704710B504463248844208D1012118
:1032B0001020FFF72DF900211020FFF729F957E022
:1032C0002D48844209D101214804FFF701F900216A
:1032D0004FF40030FFF7FCF84AE02848844209D157
:1032E00001218804FFF7F4F800214FF48020FFF754
:1032F000EFF83DE02248844209D10121C804FFF7DC
:10330000E7F800214FF40020FFF7E2F830E01D4815
:10331000844209D101210805FFF7DAF800214FF4B2
:103320008010FFF7D5F823E01748844208D1012127
:103330002020FFF7EDF800212020FFF7E9F817E043
:103340001248844209D101218807FFF7C1F8002102
:103350004FF08040FFF7BCF80AE00D48844207D1E7
:1033600001214005FFF7B4F800216005FFF7B0F830
:1033700010BD000000100140004400400048004023
:10338000004C004000500040001401400078004014
:10339000007C004070B50246002400230025002078
:1033A00040F66A16B14200D100BFC1F3421501F0E8
:1033B0001F03012606FA03F3012D02D1968933403B
:1033C00006E0022D02D1168A334001E0968A33408E
:1033D0000C12012606FA04F41688344013B10CB11D
:1033E000012000E0002070BDF0B503460024002657
:1033F0000025002040F66A17B94200D100BF1846E8
:10340000C1F3421401F01F06012707FA06F5012C4B
:1034100001D10C3004E0022C01D1103000E0143056
:103420001AB107682F43076002E00768AF430760DF
:10343000F0BD00002DE9FF4705460E460024A146D9
:1034400000BFA046B08900B100BF2C8A24F44054CC
:10345000F08804432C82AC8941F20C608443B0882C
:1034600031890843718908430443AC81AC8A24F450
:103470004074B0890443AC826846FFF765F8204881
:10348000854202D01F48854202D1DDF80C9001E050
:10349000DDF80890A88900F4004040B109EBC900AC
:1034A00000EB091031684900B0FBF1F707E009EBC8
:1034B000C90000EB091031688900B0FBF1F7642006
:1034C000B7FBF0F004012009642101FB1078A88902
:1034D00000F4004040B1322000EBC800B0FBF1F036
:1034E00000F00700044308E0322000EB08106421DC
:1034F000B0FBF1F000F00F0004432C81BDE8FF8722
:10350000001001400014014001468888C0F3080003
:10351000704703B401984100009850EAC12018BFD9
:1035200004204A0D18BF40F0010040F2FF72B2EBD8
:10353000515F08BF40F00200012808BF052002B01B
:10354000704700000000000070B59B482DED020B95
:103550002DED068B079D25F00044A04218DC97480E
:10356000844202DC0AD1069840B19DED060BBDEC09
:10357000068B02B0BDE8704000F00DBB002DCCBF43
:103580009FED8F0B9FED900BBDEC068B02B070BDD5
:103590008F48A04215DD8F48A042D8BF4FF0FF34BE
:1035A00058DD9DED060B51EC100BFFF7B2FF042820
:1035B00008BF00F005FB9DED060BBDEC068B02B0CD
:1035C00070BD9DED060B51EC100B00F099FCCDE9A0
:1035D000060181489FED828BA0423CDD8248A042DB
:1035E0001FDD00249FED82AB9DED060B53EC1A2BE3
:1035F00051EC100BFCF78CFF9DED060B41EC190B09
:1036000053EC1A2B51EC100BFDF729F853EC182B47
:10361000FDF71FF853EC192BFDF793F8CDE90601E0
:1036200049E09DED060B012453EC182B51EC100BD7
:10363000FCF76EFF9DED060B41EC190B53EC182BBC
:1036400051EC100BFDF705F853EC192BFDF779F849
:10365000CDE906012FE06848A0421FDD02249FED5E
:10366000689B9DED060B53EC192B51EC100BFCF7EE
:10367000F6FF53EC182BFCF74BFF9DED060B41ECCE
:10368000180B53EC192B51EC100BFCF7E2FF53EC29
:10369000182BFDF756F8CDE906010CE09DED060B61
:1036A000032453EC102B9FED580B51EC100BFDF73E
:1036B00048F8CDE906019DED060B53EC102B51ECBB
:1036C000100BFCF7CCFF41EC180B53EC182BFCF75C
:1036D000C6FF41EC190B4E480621B0EE490AF0EE48
:1036E000690A784400F0DBF953EC182B51EC100B0D
:1036F000FCF7B5FF41EC180B4648B0EE490AF0EE76
:10370000690A0521784400F0CAF953EC192B51ECF1
:10371000100BFCF7A4FF41EC100B51EC180B53EC11
:10372000102B002C0EDAFCF7F3FE9DED061B53EC7C
:10373000112BFCF794FF9DED061B53EC112BFCF7AE
:103740008BFF35E0FCF7E4FE9DED061B53EC112BDF
:10375000FCF785FF41EC100B2F48784400EBC400C8
:1037600090ED001B51EC100B53EC112BFCF771FF8B
:103770009DED061B53EC112BFCF76BFF41EC100B7E
:103780002648784400EBC40090ED001B51EC100B70
:1037900053EC112BFCF760FF41EC100B002DA2BF86
:1037A000BDEC068B02B070BD51EC100B81F00041F6
:1037B00041EC100B01E70000000010440000F07F16
:1037C000182D4454FB21F93F182D4454FB21F9BF17
:1037D0000000DC3F0000203E0000F33F000000003E
:1037E000000000000000F03F0000E63F0000000085
:1037F00000000000000000400080034000000000C6
:10380000000000000000F83F000000000000F0BFD2
:10381000D25F0200885F0200125F0200CA5E0200EF
:1038200070B56B4E2DED040B2DED028B82B0DDF8E3
:103830001CC0DDE905235C422CF000411C4341EA39
:10384000D474049D22F00040B44205D86C422C434D
:1038500040EAD474B4420BD99DED061B9DED040BD8
:1038600002B0BDEC028B04B0BDE8704000F09DB921
:10387000ACF14054A4F17F641C430BD0022404EA51
:10388000AC7444EAD27405439FED538B9FED542BE7
:1038900007D015E09DED040B51EC100B00F043FA3E
:1038A00042E0002C11BF012C9DED040B02B0BDECD9
:1038B000028B04BF04B070BD022C38D0032C3BD067
:1038C0000B439FED491B9FED4A0B0AD0B14218D123
:1038D000B04209D121F0804120F08040079105904D
:1038E0000FE0002A15DA10E0434B7B44002C08BFA0
:1038F00093ED000B0DD0012C10D0022C17D0032C0F
:103900001AD0B0421DD1002A03DAB0EE410AF0EE1F
:10391000610A02B0BDEC028B04B070BD93ED000BE8
:1039200051EC100B81F0004141EC100BF1E7B0EECF
:10393000480AF0EE680AECE7B0EE420AF0EE620ADE
:10394000E7E7401A00153C28C8BF8DED000B19DCD5
:10395000BCF1000FBEBF10F13C0F9FED290B8DEDA8
:10396000000B0FDB9DED060B53EC102B9DED040BB4
:1039700051EC100BFCF7E5FE00F0C2FA00F0D3F9B1
:10398000CDE90001002C08BF9DED000BC1D0012C3A
:1039900010D0022C9FED1C0B53EC102B9DED000B57
:1039A00051EC100B0DD0FCF754FE53EC182BFCF728
:1039B00050FEB9E7019880F0004001909DED000BAA
:1039C000A7E7FCF746FE53EC182BFCF745FEABE7E8
:1039D0000000F07F00000000182D4454FB21094036
:1039E000182D4454FB2109C0182D4454FB21F9BF64
:1039F000182D4454FB21F93F0AD7010000000000B4
:103A00000000000000000000075C143326A6A13C63
:103A10002DED020B019820F0004001909DED000B70
:103A200002B0704700B52DED048BB0EE409AF0EE79
:103A3000609A83B051EC190BFDF7A5F841EC180B17
:103A400018EE100A18EE901A8DED008B002818BFA2
:103A50000120084320F00040C0F17F6000F1E04009
:103A6000C00F14D019EE101A19EE900A8DED009BBC
:103A7000002918BF0121084320F00040C0F17F60F9
:103A800000F1E040C00F04BF012000F0B9F8B0EE33
:103A9000480A03B0F0EE680ABDEC048B00BD70B5B7
:103AA00004462DED028B4D1E00EBC500B0EE408AA2
:103AB000F0EE608A90ED000B35F0060017D053EC65
:103AC000182B51EC100BFCF7CAFD41EC100B6D1ECE
:103AD00004EBC50090ED001B51EC100B53EC112BC7
:103AE000FCF716FD41EC100B35F00600E7D1022D76
:103AF00036D0042D1CD0062D1CBFBDEC028B70BD32
:103B000053EC182B51EC100BFCF7A9FD94ED0A1B9C
:103B100053EC112BFCF7FCFC53EC182BFCF79FFD2E
:103B200094ED081B53EC112BFCF7F2FC41EC100B4D
:103B300053EC182B51EC100BFCF791FD94ED061B88
:103B400053EC112BFCF7E4FC53EC182BFCF787FD2E
:103B500094ED040B53EC102BFCF7DAFC41EC100B4A
:103B600053EC182B51EC100BFCF779FD94ED021B74
:103B700053EC112BFCF7CCFC53EC182BFCF76FFD2E
:103B800094ED001B53EC112BFCF7C2FCBDEC028B37
:103B900041EC100B70BD10B553EC102B51EC100B19
:103BA000FCF7B6FC41EC100B10BD10B553EC112B1B
:103BB00051EC100BFCF7ACFC41EC100B10BD0000FD
:103BC0009FED050B10B553EC102B51EC100BFCF7CF
:103BD00046FD41EC100B10BD00000000000000107D
:103BE00002E008C8121F08C1002AFAD170477047C6
:103BF000002001E001C1121F002AFBD17047000024
:103C00000149086070470000080300208178491CC2
:103C100081707047024601E0481EC1B2012903DDF0
:103C2000481E105C0028F7D0084670472DE9F04385
:103C30008DB004460D462A48066800F0ABFC0068CB
:103C40004068D0F8189004F12000C8478046B8F5C5
:103C5000FA6F01D3012000E0002007460FB10020D9
:103C6000A0770F2D04D0A07F10B90DB0BDE8F08370
:103C7000A07F08B907B9F8E7A17F481CA077601DAD
:103C80004554A07F192829D1002004900390029068
:103C9000102002A903AB04AACDE9001005A9601DFC
:103CA0001FF07AFCB8B1BDF81000052813DBBDF891
:103CB0001000420005A9B01CFCF7DDFBBDF81000A8
:103CC00070700120307000F065FC00684068D0F82A
:103CD00000902046C8470020A07700BF00BFC4E77F
:103CE00020020020F0EE400A90ED011AD0ED031AF8
:103CF00021EE211AD0ED001A01EEA01AD0ED021A21
:103D000090ED042A01EE821AD0ED051A31EE211A47
:103D1000B0EE410A90ED031A80ED041AC0ED030ADB
:103D200080ED050A704710B541EC100BFFF70CFC55
:103D300051EC100B10BD08B5002000900322182193
:103D40000DF101000CF0CAFF009808BD10B519F084
:103D5000D9FB19F0DDFB10BD70B504460D460026F9
:103D6000152010F0D5FC06466079B04208D1B4F8B1
:103D70000D1029810F20015BA9811120015B29828F
:103D800070BD70B505460C460026132010F0C0FC2F
:103D900006466879B04233D1002006E005F10D01F6
:103DA0000A5CE11D0A54411CC8B20428F6DB697B99
:103DB000102901D1217019E0697B202901D161709E
:103DC00014E0697B042901D1E1700FE0697B0829C7
:103DD00001D1A1700AE0697B022901D1217105E0BE
:103DE000002121706170A170E1702171E97B617126
:103DF000697C012901D1A17101E00021A17100BFFD
:103E000070BD70B504460D46E07A042807D0E07A0C
:103E1000012804D0E07A10B1E07A092805D105F133
:103E20007001204600F00AF807E0E07A062804D185
:103E300005F19E01204600F015F870BD70B50446EE
:103E40000D46E07904280CD1A079022802D0A0798F
:103E5000092806D1207B012803D129462046FFF7F7
:103E60007BFF70BD70B504460D46207B502803D102
:103E700029462046FFF785FF70BD70B500F08AFB2C
:103E8000006844680DF0AAFB80200DF0BBFB002009
:103E90000DF0B8FB05460DF0F1FB0120E168884705
:103EA000D12D01D1012070BD0020FCE770B500F0DC
:103EB00071FB006844680DF091FBF5200DF0A2FB4A
:103EC00000200DF09FFB05460DF0D8FB0120E168B6
:103ED0008847472D01D1012070BD0020FCE7024634
:103EE0000B7883EA020080EA0013D8B20B881B1219
:103EF00083EA002383EAC00383EA20130B80704720
:103F000082B0CDE9000121F0004001909DED000B51
:103F100002B051EC100B70472DE9F0412DED0A8BEA
:103F200086B000F037FBC06906681BF0A1F9046891
:103F300000F030FB8069076800F02CFBC069D0F806
:103F40000C8000F027FB006980690568A847B0EE87
:103F500040AAF0EE60AA51EC1A0B81F0004141EC4E
:103F6000190B9FEDFE0B53EC102BFCF778FB41EC8B
:103F7000180BFCF787FCFB49086000F00BFB00699D
:103F8000C0690568A847B0EE409AF0EE609A9FEDD0
:103F9000F30B53EC102B51EC190BFCF760FB41ECCD
:103FA000180BFCF76FFCEF49486012F095FF806832
:103FB0008569A847B0EE409AF0EE609A9FEDE70B56
:103FC00053EC102B51EC190BFCF749FB41EC180B8F
:103FD000FCF758FCE3498860E348007808B11BF01F
:103FE00001F994F8300068B90220E0490871002016
:103FF000DF4908710021DE4841718171012084F898
:10400000300079E294F8300001285BD1D54800688F
:10401000D8490860D34840684860D24880688860C2
:10402000D04890ED000AB8EEC00AD34880ED000AEF
:10403000CC4890ED010AB8EEC00ACF4880ED010AE5
:10404000C84890ED020AB8EEC00ACB4880ED020ADB
:10405000CA480021016041608160C9480160416037
:104060008160C8480160416081600020C6490870D5
:10407000C649087012F030FF80688569A847B0EE25
:10408000409AF0EE609A9FEDB50B53EC102B51EC7B
:10409000190BFCF7E4FA41EC180BFCF7F3FBBC49F5
:1040A000886012F019FF0569A84738B91BF0E0F8DD
:1040B000406918B11BF0DCF84569A847022084F874
:1040C000300019E294F8300002287DD194F83100D4
:1040D00000280ED094F831000128FAD094F831006D
:1040E00002280FD1A2480078012803D16421A048FA
:1040F00001817DE19E4800780028FAD164219C4826
:10410000018175E194F8310003287CD11BF092FE07
:10411000606B90F83300A0B39E490868FCF780FB01
:1041200041EC1A0B606B90ED101BB0EE410AF0EE03
:10413000610A51EC100B81F0004141EC1C0B606BEB
:1041400090ED121BB0EE410AF0EE610A53EC102B19
:1041500051EC1C0BFCF783FA41EC1B0B53EC1A2BB4
:10416000FCF77DFA41EC190B9FED8B0B53EC102BF8
:10417000FCF7E7FA41EC180BFCF784FB7C498861FB
:104180002FE0FFE783490868FCF74AFB41EC1A0B74
:10419000606B90ED122BB0EE420AF0EE620A90EDE9
:1041A000102BB0EE421AF0EE621A53EC102B51ECC9
:1041B000110BFCF754FA41EC1B0B53EC1A2BFCF7D8
:1041C0004EFA41EC190B00E07AE19FED730B53ECD2
:1041D000102BFCF7B6FA41EC180BFCF753FB6449C3
:1041E0008861A06B90F83300B0B36A494868FCF767
:1041F00017FB41EC1A0BA06B90ED101BB0EE410ABF
:10420000F0EE610A00E0F2E051EC100B81F00041A9
:1042100041EC1C0BA06B90ED121BB0EE410AF0EECE
:10422000610A53EC102B51EC1C0BFCF718FA41EC13
:104230001B0B53EC1A2BFCF712FA41EC190B9FEDF8
:10424000560B53EC102BFCF77CFA41EC180BFCF7E7
:1042500019FB4749C8612DE0FFE74E494868FCF764
:10426000DFFA41EC1A0BA06B90ED122BB0EE420A74
:10427000F0EE620A90ED102BB0EE421AF0EE621AE8
:1042800053EC102B51EC110BFCF7E9F941EC1B0B33
:1042900053EC1A2BFCF7E3F941EC190B9FED3E0BA5
:1042A00053EC102BFCF74DFA41EC180BFCF7EAFA33
:1042B0002F49C861E06B90F83300A0B33549886896
:1042C000FCF7AEFA41EC1A0BE06B90ED101BB0EE70
:1042D000410AF0EE610A51EC100B81F0004141EC13
:1042E0001C0BE06B90ED121BB0EE410AF0EE610A80
:1042F00053EC102B51EC1C0BFCF7B1F941EC1B0BF0
:1043000053EC1A2BFCF7ABF941EC190B9FED220B88
:1043100053EC102BFCF715FA41EC180BFCF7B2FA32
:104320001349086250E0FFE71A498868FCF778FAF9
:1043300041EC1A0BE06B90ED122BB0EE420AF0EE5E
:10434000620A90ED102BB0EE421AF0EE621A53ECB6
:10435000102B51EC110BFCF782F921E0000000005A
:10436000000024405C0300206D0000200C030020AE
:104370002C03002068030020780300209003002015
:10438000840300209C0300206C00002070000020AB
:104390005003002008390208000000000088C340D4
:1043A00041EC1B0B53EC1A2BFCF759F941EC190BA0
:1043B0001FED070B53EC102BFCF7C3F941EC180B66
:1043C000FCF760FA4F49086202204E49087008461F
:1043D000806928B90846C06910B90846006A10B15A
:1043E00001204949087002204649087000E000BFDA
:1043F00045480078012860D14248806943490968EE
:10440000884202DD3F48806901E0404800683D493C
:1044100088610846C0693D494968884202DD3948DB
:10442000C06901E0394840683649C8610846006AF9
:1044300036498968884202DD3248006A01E0334823
:1044400080683049086208468069314909688842B5
:1044500002DA2C48806901E02D480068294988610A
:104460000846C0692A494968884202DA2548C06975
:1044700001E0274840682349C8610846006A24498A
:104480008968884202DA1F48006A01E02048806893
:104490001C4908620A46183207CA02AB07C319480A
:1044A00041690069CDE9000116490878091D0EC966
:1044B000FDF7FAFD00201449087019F081FF1BE098
:1044C00094F83000032812D100F064F80069856B7D
:1044D000A84712F001FD8569A84712F0FDFC056AA6
:1044E000A8470020E071042084F8300004E094F82C
:1044F0003000042800D000BF06B0BDEC0A8BBDE838
:10450000F08100002C0300206C00002074000020CB
:104510008000002010B5002821D0114B0022001F80
:10452000196803E0814203D80A4649680029F9D195
:1045300052B11368841A9C4204D100681844106078
:10454000104602E0506000E0186039B102680B1AB2
:10455000934203D10B681A4402604968416010BD60
:104560000003002001480079704700000C03002080
:1045700010B507F0A5FD0649086007F0DFFE044905
:10458000486007F027FE02498860084610BD000019
:10459000600B002001480068704700009400002074
:1045A00000B585B06846FDF7CFFF0120FDF7C6FFD7
:1045B00005208DF8100000208DF811008DF81200F4
:1045C00001208DF8130004A8FDF70CFF5748FDF7F4
:1045D000BFF95748FDF7BCF95648FDF7B9F95648F9
:1045E000FDF7B6F95548FDF7B3F95548FDF7B0F9B1
:1045F0005448FEF71FFB4FF08040FEF71BFB52486C
:10460000FEF718FB5148FEF715FB5148FEF712FB69
:104610005048FEF70FFB5048FEF70CFB4F48FEF7E3
:1046200009FB4F48FEF706FB4E48FEF703FB4E48DA
:10463000FEF700FB4D48FEF7FDFA4D48FEF7FAFA8B
:104640004C48FEF7F7FA4C48FEF772F84B48FEF775
:104650006FF84B48FEF726FE4A48FEF723FE4A480D
:10466000FEF720FE4948FEF71DFE4948FEF71AFEF8
:104670004848FEF717FE4848FCF704FC4748FCF79B
:1046800001FCFCF731FB4648FCF76CFF444818304E
:10469000FCF768FF42483030FCF764FF4048483080
:1046A000FCF760FF3E486030FCF75CFF3C48783028
:1046B000FCF758FF3A489030FCF754FF3848A830D0
:1046C000FCF750FF3748FCF74DFF36481830FCF731
:1046D00049FF34483030FCF745FF32484830FCF79A
:1046E00041FF30486030FCF73DFF2E487830FCF742
:1046F00039FF2C489030FCF735FF2A48A830FCF7EA
:1047000031FFFDF7CFF801218803FDF7F1FE01210C
:1047100040F2FF10FDF7ACFE01214805FDF7A8FEB1
:1047200001218805FDF7A4FE05B000BD0000024090
:104730000004024000080240000C02400010024049
:104740000014024000000140000400400008004046
:10475000000C004000100040001400400004014024
:104760000040014000440140004801400018004062
:10477000001C004000200040003001400038004094
:10478000001001400044004000480040004C004040
:1047900000500040001401400064004000680040E8
:1047A0001060024010640240704700000148006839
:1047B000007A704798000020014800680068704740
:1047C0009800002001480068C068704798000020E9
:1047D00002480168D1E906017047000098000020F6
:1047E00001213420FBF786FE2049086001212020AA
:1047F000FBF780FE1E4908601C48046808460568EF
:104800001C48A0621C48E0621C482063FFF7B0FE11
:104810002060206840680168281D8847FFF7C0FEB7
:1048200001F094FB60600FF0A1FDE060FFF7BCFFBA
:104830000FF0B0F9A0610EF07DF9206105F0CEF81F
:10484000E06120680068012182680820904760626A
:104850000B48616A08600B48616A486003F042FCDB
:10486000606109F06DFF206200F00EF894000020F6
:1048700098000020B9470008C5470008D147000844
:104880003D490008AD470008FFF784FE00688668D0
:10489000FFF780FE00684568FFF77CFE0068076848
:1048A000FFF778FEC068D0F80C80174804683868B5
:1048B00080478146201D696888470A302060A86AC1
:1048C0008047D4E90623801843F10001C4E90601BA
:1048D00004F1100029688847318823684A460BA0F4
:1048E000D8F810C0E0470EE004F11000A96988472D
:1048F000E060D4E90631E068181841F10001C4E92C
:104900000601B0688047EFE7980000205441534B00
:10491000204E554D3A2025642C20484541502053C7
:10492000495A453A20307825782C2054494D452065
:10493000494E49543A202564206D730001490968A5
:1049400008727047980000202DE9F0418AB00646B1
:104950008F480468354601AFE878212801DAE87805
:1049600000E02120804621213846FBF79DFD42468C
:1049700005F10C013846FBF77EFD00BFBDF82000B5
:10498000CD2815D1A069002811D09DED072AF0EEA1
:10499000421A9DED032AB0EE421A9DED022AF0EE76
:1049A000420A9DED012AB0EE420AA0698047EBE081
:1049B000BDF820004AF2076188421DD19DED070A2B
:1049C000F7EE000AB4EE600AF1EE10FA05D1E069E4
:1049D0000028ECD0E0698047D6E09DED070AF0EEB4
:1049E000000AB4EE600AF1EE10FAE0D1206A002865
:1049F000DDD0206A8047C7E0BDF8200047F62211CD
:104A0000884214D19DED070AF7EE000AB4EE600A61
:104A1000F1EE10FA05D1A06A0028C8D0A06A80473C
:104A2000B2E0606A0028C2D0606A8047ACE0BDF89E
:104A3000200047F6231188423BD19DED070AF0EE96
:104A4000000AB4EE600AF1EE10FA05D1E06A00281F
:104A500001D0E06A804797E09DED070AF7EE000A73
:104A6000B4EE600AF1EE10FA05D1206B002801D0F7
:104A7000206B804788E09DED070AF0EE080AB4EE4F
:104A8000600AF1EE10FA05D1606C00287CD0606CF1
:104A9000804779E09DED070AF1EE000AB4EE600A66
:104AA000F1EE10FA70D1A06C00286DD0A06C804798
:104AB0006AE0BDF8200047F62411884212D19DED2E
:104AC000070AF2EE000AB4EE600AF1EE10FA04D121
:104AD000606B60B3606B804756E0A06B38B3A06B2F
:104AE000804751E0BDF8200047F6251188420DD1DE
:104AF00028490968D1F81C12087826490968D1F8B4
:104B00001C12254A4B6B072198473DE0BDF8200059
:104B1000B3281BD19DED070AF7EE000AB4EE600A38
:104B2000F1EE10FA04D1E06B08B1E06B80472BE0A6
:104B30009DED070AF0EE000AB4EE600AF1EE10FAFD
:104B400022D1206C00B3206C80471DE0BDF820000E
:104B5000F62819D19DED040AF7EE000AB4EE600ABA
:104B6000F1EE10FA10D100BFBFF34F8F0B48006871
:104B700000F4E0600A490843001D08490860BFF3DB
:104B80004F8F00BF00BFFEE70AB0BDE8F081000014
:104B9000C8000020CC000020195200080CED00E0F5
:104BA0000000FA05FEB505462C466E46E078092859
:104BB00001DAE07800E00920074609213046FBF7DA
:104BC00073FC3A4604F10C013046FBF754FC00BF7D
:104BD000FEBD00002DE9F04387B00646FFF7DAFC82
:104BE000876935460DF10408E878172801DAE87876
:104BF00000E01720814617214046FBF755FC4A4646
:104C000005F10C014046FBF736FC00BF002448E0EC
:104C10003868016820468847054629460DF10A0094
:104C2000FBF74DFCD0BB386841682046884700EE52
:104C3000100AB8EEC00ADDED010AB4EE600AF1EE2A
:104C400010FA2AD0019820F00041C1F1FF41C90FAC
:104C500019BB01984FF07F41B1EB400F01D1012109
:104C600000E00021C9B99DED010ABDEEC00A10EEB9
:104C7000100A01B220467A6890470D480068C06C5F
:104C800058B19DED010ABDEEC00A10EE100A01B246
:104C900007480068C26C2046904704E0FFE7601CAC
:104CA000C4B24E2CB4DB00BF07B0BDE8F0830000F7
:104CB000C80000202DE9FC4106469D4804683546A1
:104CC0006F46E878062801DAE87800E0062080469A
:104CD00000203860B880424605F10C013846FBF7E9
:104CE000CAFB00BF9DF8050002287DD19DF8040095
:104CF00068B90020D4F81C12C96A09680860D4F8A1
:104D00001C1208788B4A4B6B002198470EE19DF8E6
:104D100004001E280DD10020D4F81C12C96A49686D
:104D20000860D4F81C120878834A4B6B1E21984700
:104D3000FCE09DF8040001280DD10020D4F81C12DD
:104D4000C96A89680860D4F81C1208787B4A4B6BE2
:104D500001219847EAE09DF804001B280DD10020AE
:104D6000D4F81C12C96AC9680860D4F81C12087803
:104D7000734A4B6B1B219847D8E09DF804004128EB
:104D80000DD10020D4F81C12C96A09690860D4F852
:104D90001C1208786B4A4B6B41219847C6E09DF87E
:104DA00004009E280DD10020D4F81C12C96A49695C
:104DB0000860D4F81C120878634A4B6B9E21984710
:104DC000B4E09DF80400FE28A0D10020D4F81C1205
:104DD000C96A89690860D4F81C1208785B4A4B6B71
:104DE000FE219847A2E0FFE79DF80500012852D177
:104DF0009DF8040038B9BDF80000D4F81C12C96A47
:104E00000968086092E09DF804001E2807D1BDF8EB
:104E10000000D4F81C12C96A4968086086E09DF851
:104E20000400012807D1BDF80000D4F81C12C96A9B
:104E3000896808607AE09DF804001B2807D1BDF856
:104E40000000D4F81C12C96AC96808606EE09DF8B9
:104E50000400412807D1BDF80000D4F81C12C96A2B
:104E60000969086062E09DF804009E2807D1BDF83A
:104E70000000D4F81C12C96A4969086056E09DF820
:104E80000400FE2852D1BDF80000D4F81C12C96AF3
:104E9000896908604AE09DF8040030B90020D4F820
:104EA0001C12C96A0968086040E09DF804001E28C9
:104EB00006D10020D4F81C12C96A4968086035E0A0
:104EC0009DF80400012806D10020D4F81C12C96AFC
:104ED000896808602AE09DF804001B2806D100209C
:104EE000D4F81C12C96AC96808601FE09DF8040064
:104EF000412806D10020D4F81C12C96A096908604B
:104F000014E09DF804009E2806D10020D4F81C125D
:104F1000C96A4969086009E09DF80400FE2805D1C6
:104F20000020D4F81C12C96A89690860BDE8FC81B8
:104F3000CC000020D95300081D5000089D560008E1
:104F4000BD540008255600087D5300080153000891
:104F50002DE9F84306461548046835466F46E8785B
:104F6000022801DAE87800E002208046002038803C
:104F7000424605F10C013846FBF77DFA00BF0020E0
:104F800004F50774E0804E20208121680878084AE3
:104F90004B6B1621984721680878A4F50774054AD9
:104FA0004B6B07219847BDE8F8830000CC00002038
:104FB00021540008195200082DE9F04186B0064638
:104FC00014480468354601AFE878142801DAE87817
:104FD00000E01420804614213846FBF765FA42466B
:104FE00005F10C013846FBF746FA00BFBDF8040096
:104FF00004F50774E080E088401C2081216808786F
:10500000A4F50774044A4B6B1621984706B0BDE817
:10501000F0810000CC000020215400082DE9F04769
:105020002DED028B88B08046FFF7B4FA0068D0F807
:105030000490FFF7AFFAD0F810A0734804680B256E
:105040000068D0F81C0207789A26D9F82800804713
:105050004FF47A71B0FBF1F00190D4F82C02A8B1B2
:10506000D4F82C0290ED001BB0EE410AF0EE610A7C
:105070009FED661B53EC112B51EC100BFBF7EFFA75
:1050800041EC180BFBF79EFC029003E09FED610AD8
:105090008DED020AD4F82802A8B1D4F8280290EDC8
:1050A000001BB0EE410AF0EE610A9FED581B53EC75
:1050B000112B51EC100BFBF7D2FA41EC180BFBF75C
:1050C00081FC039003E09FED530A8DED030AD4F8B1
:1050D0003002A8B1D4F8300290ED001BB0EE410AC6
:1050E000F0EE610A9FED491B53EC112B51EC100BB4
:1050F000FBF7B5FA41EC180BFBF764FC049003E0F6
:105100009FED440A8DED040AD4F83802A8B1D4F812
:10511000380290ED001BB0EE410AF0EE610A9FEDFF
:105120003B1B53EC112B51EC100BFBF798FA41ECA5
:10513000180BFBF747FC059003E09FED360A8DED59
:10514000050AD4F83402A8B1D4F8340290ED001B5B
:10515000B0EE410AF0EE610A9FED2C1B53EC112BCF
:1051600051EC100BFBF77BFA41EC180BFBF72AFC18
:10517000069003E09FED270A8DED060AD4F83C0265
:10518000A8B1D4F83C0290ED001BB0EE410AF0EE5D
:10519000610A9FED1E1B53EC112B51EC100BFBF71A
:1051A0005EFA41EC180BFBF70DFC079003E09FED56
:1051B000190A8DED070A00BF019800909DED073A8E
:1051C000F0EE432A9DED063AB0EE432A9DED053AF6
:1051D000F0EE431A9DED043AB0EE431A9DED033A0A
:1051E000F0EE430A9DED023AB0EE430A8446434690
:1051F0003A463146284610F0CDF9012008B0BDEC02
:10520000028BBDE8F0870000CC00002011A35CA257
:1052100046DF913F000000002DE9F04F93B00446B7
:105220004FF00B0934480068D0F81C0290F800A039
:105230004FF09A0B314800788DF82C002F48401C15
:1052400000788DF82D002D48801C00788DF82E00F8
:105250002A48C01C00788DF82F002848001D0078CF
:105260008DF830002548401D00788DF83100234826
:10527000801D00788DF832002048C01D00788DF820
:1052800033001E48083000788DF834001B48093080
:1052900000788DF8350019480A3000788DF836000E
:1052A00016480B3000788DF837001A208DF838003A
:1052B0004D465F46D0460BAE00BF2022314603A8C4
:1052C0000FF06EFB202203A904F10C00FBF7D3F8CA
:1052D000207A00F5E060A06077202021009143460D
:1052E0003A46CDE90110294620460FF0FDFE00BFE9
:1052F000012013B0BDE8F08FCC000020107AFF1F12
:105300002DE9FF4105461C4804680B260068D0F8CB
:105310001C0207784FF09A0894F8540294F855123A
:10532000884202DB002084F8540204F515742078CA
:105330008DF80C002178606800EBC10090ED001B37
:10534000B0EE410AF0EE610A51EC100BFBF73AFBAC
:105350000290002001902078401C2070A4F5157464
:1053600001A82B463A4641460090304610F0C7F956
:10537000012004B0BDE8F081CC0000202DE9F0410F
:1053800086B005460B2613480068D0F81C0290F83A
:1053900000809A27FFF7FEF844692168486A804731
:1053A00002906168486A80470390A168486A804714
:1053B00004908DF814608DF8157002A82B464246B3
:1053C00039460090304610F0E2FA012006B0BDE800
:1053D000F0810000CC0000202DE9FF4104460B25A0
:1053E0000E480068D0F81C0206789A271A208DF81B
:1053F000080000208DF809008DF80A0001900420B3
:105400008DF80B0001A82346324639460090284605
:1054100010F0A5F9012004B0BDE8F081CC00002017
:105420002DE9F04F89B0054623480468FFF7B2F82C
:1054300086690B2720480068D0F81C0290F800808D
:105440004FF09A0904F22224208832685168884774
:1054500000EE100AB8EEC00A8DED020A03208DF8A6
:1054600020004E20ADF80C002088ADF80E002088FA
:105470003268116888478346FFF78CF8406810222D
:105480005946D0F830A004A8D04702A82B4642467F
:1054900049460090384610F013FB2088401C2080BD
:1054A00020886188A4F22224884203DA002009B00F
:1054B000BDE8F08F0120FAE7CC0000202DE9F0478D
:1054C0002DED028B8AB00646FFF764F80068476846
:1054D000514805684FF00B080068D0F81C0290F89E
:1054E00000904FF09A0AFFF755F80469B86A8047B0
:1054F0000021CDE90201A1680868804700B2ADF83B
:105500001000A1684868804700B2ADF81200A16899
:105510008868804700B2ADF8140061680868804769
:1055200000B2ADF8160061684868804700B2ADF877
:10553000180061688868804700B2ADF81A002068DA
:105540008047C0B28DF82200D5F84802B8B1D5F82E
:10555000480290ED001BB0EE410AF0EE610A9FEDAB
:105560002F1B53EC112B51EC100BFBF778F841EC8F
:10557000180BFBF787F900B2ADF81C0002E0002021
:10558000ADF81C00D5F84C02B8B1D5F84C0290ED3E
:10559000001BB0EE410AF0EE610A9FED201B53ECB8
:1055A000112B51EC100BFBF75AF841EC180BFBF7E1
:1055B00069F900B2ADF81E0002E00020ADF81E004F
:1055C000D5F85002B8B1D5F8500290ED001BB0EEFE
:1055D000410AF0EE610A9FED111B53EC112B51ECC7
:1055E000100BFBF73CF841EC180BFBF74BF900B242
:1055F000ADF8200002E00020ADF8200002A83346FC
:105600004A4651460090404610F01AFB01200AB06D
:10561000BDEC028BBDE8F087CC000020000000004C
:10562000000059402DE9F0478CB00646FEF7B2FF66
:10563000C069046820688047012828D10B271648D4
:105640000068D0F81C0290F800804FF09A090DF124
:10565000080A002506E0E8B2A16888472AF8150084
:10566000681C85B260688047A842F4DC0020019085
:105670008DF82D00606880478DF82C0001A8334616
:10568000424649460090384610F045FC00BF0120D4
:105690000CB0BDE8F0870000CC0000202DE9F04FF1
:1056A0002DED028B89B00646334804680B2700684D
:1056B000D0F81C0290F800804FF09A090120019068
:1056C0000290FEF767FF056969684869804783466D
:1056D000A9684869804758440390A86A804780B207
:1056E000ADF81000FEF756FFC068D0F804A0DAF855
:1056F00000008047B0EE408AF0EE608A51EC180B53
:10570000FBF7DFF880B2ADF812004FF0FF30ADF8D4
:1057100014000020ADF81600ADF81800D4F84002CF
:1057200028B1D4F840020088ADF81A0002E0002049
:10573000ADF81A00D4F8400228B1D4F84402008829
:10574000ADF81C0002E00020ADF81C000020ADF810
:105750001E00ADF820008DF8220001A83346424615
:1057600049460090384610F0DBFC012009B0BDEC42
:10577000028BBDE8F08F0000CC000020064B1B68B8
:10578000C3F82802044B1B68C3F82C12024B1B6899
:10579000C3F8302270470000CC000020044909689B
:1057A000D1F8581201EBC00181ED000B70470000E9
:1057B000CC000020064B1B68C3F84802044B1B6852
:1057C000C3F84C12024B1B68C3F85022704700000C
:1057D000CC000020044A1268C2F84002024A126853
:1057E000C2F8441270470000CC00002010B518F039
:1057F00043F810BD10B52DED028BB0EE408AF0EEEF
:10580000608A9FED0B0B53EC102B51EC180BFBF740
:10581000A9F808D251EC180B81F0004141EC100BB3
:10582000BDEC028B10BDB0EE480AF0EE680AF7E757
:10583000000000000000000010B52DED028B0446B2
:10584000B0EE408AF0EE608A94ED001BB0EE410AA3
:10585000F0EE610A53EC182B51EC100BFAF758FEDE
:10586000C4E90001A068401CA060BDEC028B10BD23
:1058700010B52DED088B0446A068E8B3A068FAF7D0
:10588000E0FF41EC190B94ED001BB0EE410AF0EE85
:10589000610A53EC192B51EC100BFAF752FF41EC53
:1058A000180B94ED061BB0EE410AF0EE610A53ECC2
:1058B000102B9FED211B51EC110BFAF7CAFE41ECA6
:1058C0001B0B53EC182BFAF7CAFE41EC190B94EDA5
:1058D000062BB0EE420AF0EE620A94ED042BB0EE15
:1058E000421AF0EE621A53EC102B51EC110BFAF73E
:1058F000B6FE41EC1A0B00E006E053EC192BFAF768
:1059000007FEC4E9040103E09FED0D0B84ED040BD9
:105910009FED0B0B84ED000B0020A06094ED041BA9
:10592000B0EE410AF0EE610A51EC100BFAF7AAFF53
:1059300000B2BDEC088B10BD000000000000F03F7D
:10594000000000000000000010B5D0E9004264181B
:1059500042EBE172C0E90042826802F1010282601A
:1059600010BD00002DE9F0412DED0A8B0446A06822
:10597000C0B3D4E9011C6246002326683046FAF71A
:1059800049FD05B294ED041BB0EE410AF0EE610A48
:1059900053EC102B9FED1A1B51EC110BFAF759FE2B
:1059A00041EC1B0B2846FAF73BFF53EC1B2BFAF795
:1059B00056FE41EC190BB4F90C00FAF731FF94EDE7
:1059C000041BB0EE410AF0EE610A53EC102BFAF71B
:1059D00046FE53EC192BFAF79BFDFAF753FF00B282
:1059E000A08102E0FFE70020A0810021216061602A
:1059F0000020A060B4F90C00BDEC0A8BBDE8F0817A
:105A0000000000000000F03FF0B503460C46002106
:105A10001D462646012006E06F5C16F801C067456A
:105A200000D00020491C914201DA0128F4D0F0BDD9
:105A3000024641EA0240704770B503461C460D46D7
:105A4000002000BF02E02E5C2654401C9042FAD396
:105A500070BD10B52DED048BB0EE408AF0EE608A7B
:105A600051EC180BFAF7AEFF09EE100AB0EE490A36
:105A7000FAF7A6FB10EE104A2046FAF760FF41EC59
:105A8000100BBDEC048B10BD2DE9F0412DED0A8B00
:105A90000446FEF77FFD4568FEF77CFD006846681A
:105AA00094ED080BB0EE408AF0EE608A9FED670B34
:105AB000B0EE409AF0EE609A04F13000B169884788
:105AC0000746FAF7BEFE41EC1C0B9FED620B53EC50
:105AD000102BFAF736FE41EC1B0B9FED600B53ECDD
